:020000040800F2
:10000000100B002095050008790200087B0200080B
:1000100087020008930200089F0200080000000009
:10002000000000000000000000000000AB0200081B
:10003000AD02000800000000AB050008AF02000898
:10004000AF050008AF050008AF050008B3020008BF
:10005000AF050008AF050008B1020008AF050008B1
:10006000AF050008AF050008AF050008AF050008A0
:10007000AF050008AF050008AF050008AF05000890
:10008000AF050008AF050008AF050008AF05000880
:10009000AF050008AF050008AF050008AF05000870
:1000A000AF050008AF050008AF050008AF05000860
:1000B000AF050008AF050008AF050008AF05000850
:1000C000AF050008AF050008AF050008AF05000840
:1000D000AF050008C33900086D4D0008AF050008E2
:1000E000AF050008AF050008AF050008AF05000820
:1000F000AF050008AF050008AF050008AF05000810
:10010000AF050008AF050008AF050008AF050008FF
:10011000AF050008AF050008FD27000829280008E2
:10012000AF050008AF050008AF050008AF050008DF
:1001300000F002F800F090F80AA090E8000C824469
:100140008344AAF10107DA4501D100F085F8AFF246
:10015000090EBAE80F0013F0010F18BFFB1A43F0A5
:1001600001031847C0840000E0840000103A24BF57
:1001700078C878C1FAD8520724BF30C830C144BF0C
:1001800004680C607047000000230024002500264E
:10019000103A28BF78C1FBD8520728BF30C148BFEA
:1001A0000B6070476E2905F01184702905F07F8778
:1001B000662907F0AE84652907F0AB84672907F04C
:1001C000A8846129AFF3008003681B0A28BF41F0AF
:1001D0008001692905F06C81642905F06981752920
:1001E00005F066816F2905F00C87782905F04B87AB
:1001F000E92905F0A786E42905F0A486F52905F08C
:10020000A186EF2905F00987F82905F04A870368D8
:10021000DB0928BF41F08001632905F02886732996
:1002200005F02D86E32906F02580F32906F02A80C3
:10023000002070471FB505F089FF04000020002151
:1002400006F072FD401C60600020002106F056FDA3
:10025000E0601FBD10B510BD06F0F6F81146FFF7BF
:10026000E9FF03F07FFE06F022F903B4FFF7F2FF87
:1002700003BC06F065F9000070470EA11C4803F0AE
:100280007CFB00BFFEE71BA1194803F076FB00BF13
:10029000FEE727A1164803F070FB00BFFEE733A17D
:1002A000134803F06AFB00BFFEE7704770477047D2
:1002B000704770470D0A2A2A2A2A2A2A2A2A2A2A15
:1002C0002A2A2A2A2A2A2A2A2A4861726446617519
:1002D0006C745F48616E646C65722A2A2A2A2A2A25
:1002E0002A2A2A2A2A2A2A2A2A2A2A2A2A0D0A00D5
:1002F000003801400D0A2A2A2A2A2A2A2A2A2A2ACA
:100300002A2A2A2A2A2A2A2A2A4D656D4D616E61D7
:1003100067655F48616E646C65722A2A2A2A2A2AF8
:100320002A2A2A2A2A2A2A2A2A2A2A2A2A0D0A0094
:100330000D0A2A2A2A2A2A2A2A2A2A2A2A2A2A2A5A
:100340002A2A2A2A2A4275734661756C745F4861AD
:100350006E646C65722A2A2A2A2A2A2A2A2A2A2ABA
:100360002A2A2A2A2A2A2A2A0D0A00000D0A2A2ABB
:100370002A2A2A2A2A2A2A2A2A2A2A2A2A2A2A2ADD
:100380002A55736167654661756C745F48616E6478
:100390006C65722A2A2A2A2A2A2A2A2A2A2A2A2AF8
:1003A0002A2A2A2A2A2A0D0A000000000CB5002059
:1003B000019000906C48006840F480306A49086001
:1003C00000BF6948006800F4003000900198401CAC
:1003D0000190009818B90198B0F5A06FF1D162486A
:1003E000006800F4003010B10120009001E000200E
:1003F00000900098012843D15C48006840F010004C
:100400005A4908600846006820F003000860084662
:10041000006840F002000860534840685249486054
:100420000846406848600846406840F4806048607C
:100430000846406820F47C1048600846406840F454
:10044000881048600846006840F08070086000BF6F
:100450004548006800F000700028F9D04248406824
:1004600020F00300404948600846406840F0020020
:10047000486000BF3C48406800F00C000828F9D1F3
:100480000CBD10B5FFF792FF10BD10B536480068DF
:1004900040F001003449086008464068344908408B
:1004A0003149486008460068324908402E490860D2
:1004B0000846006820F4802008600846406820F460
:1004C000FE0048604FF41F008860FFF7DAFF4FF02E
:1004D00000602949086010BD10B5002100200022ED
:1004E000214B5B6803F00C0121B1042906D00829D7
:1004F00028D107E0214B224C236027E0214B204CE0
:10050000236023E0184B5B6803F47010164B5B68A4
:1005100003F48032022303EB904022B91A4B434389
:10052000174C23600DE0104B5B6803F4003323B1DC
:10053000164B4343124C236003E0124B4343104CD1
:10054000236003E00D4B0E4C236000BF00BF064B41
:100550005B68C3F303130E4CE15C094B1B68CB4093
:10056000074C236010BD0000001002400020024034
:100570000000FFF8FFFFF6FE08ED00E000127A0031
:1005800000000020001BB70000093D00808D5B00CB
:10059000040000200948804709480047FEE7FEE7BD
:1005A000FEE7FEE7FEE7FEE7FEE7FEE7FEE7FEE723
:1005B00004480549054A064B704700008B040008B3
:1005C0003101000810030020100B0020100700204C
:1005D0001007002031490143314A1160704770B55E
:1005E000002100230F22C47804B32D4C246804F4A6
:1005F000E064C4F5E064210AC1F10403CA40447810
:1006000004FA03F18478144021430901254C06784B
:10061000A155047804F01F050124AC4005786D1144
:10062000AD0005F1E025C5F8004109E0047804F0CB
:100630001F050124AC401C4D0678761145F8264074
:1006400070BD1A4A0A400243154B1B1F1A607047BF
:1006500039B1134A121D12680243114B1B1D1A6057
:1006600006E00F4A121D126882430D4B1B1D1A60D3
:100670007047042808D14FF0E021096941F00401D6
:100680004FF0E022116107E04FF0E021096921F00D
:1006900004014FF0E0221161704700000000FA05EC
:1006A0000CED00E000E400E080E100E080FFFF1FCF
:1006B00010B50446CC48844208D10121042000F042
:1006C0002DFB0021042000F029FB46E0C7488442AE
:1006D00008D10121082000F021FB0021082000F0B2
:1006E0001DFB3AE0C248844208D10121102000F0ED
:1006F00015FB0021102000F011FB2EE0BD488442C4
:1007000008D10121202000F009FB0021202000F069
:1007100005FB22E0B848844208D10121402000F0C6
:10072000FDFA0021402000F0F9FA16E0B3488442B7
:1007300008D10121802000F0F1FA0021802000F092
:10074000EDFA0AE0AE48844207D10121801500F09D
:10075000E5FA0021A01500F0E1FA10BD10B5012165
:10076000084600F0DBFA0021012000F0D7FA10BDA6
:100770002DE9F04102460025002600200023002438
:10078000002791F803C00CF00F0591F803C00CF09E
:10079000100CBCF1000F03D091F802C04CEA050523
:1007A00091F800C0BCF1000F31D0146800202BE09C
:1007B0004FF0010C0CFA00F3B1F800C00CEA03068C
:1007C0009E4220D183004FF00F0C0CFA03F7BC437C
:1007D00005FA03FC4CEA040491F803C0BCF1280FAD
:1007E00006D14FF0010C0CFA00FCC2F814C00AE06C
:1007F00091F803C0BCF1480F05D14FF0010C0CFA81
:1008000000FCC2F810C0401C0828D1D31460B1F815
:1008100000C0BCF1FF0F34DD546800202EE000F171
:10082000080C4FF0010808FA0CF3B1F800C00CEA0C
:1008300003069E4221D183004FF00F0C0CFA03F700
:10084000BC4305FA03FC4CEA040491F803C0BCF174
:10085000280F05D100F1080C08FA0CF8C2F8148032
:1008600091F803C0BCF1480F07D100F1080C4FF01C
:10087000010808FA0CF8C2F81080401C0828CED3F2
:100880005460BDE8F0814FF6FF7101800221817054
:100890000421C17070470246002093680B400BB1E1
:1008A000012000E0002070470146886880B2704750
:1008B00002460020D3680B400BB1012000E000206D
:1008C00070470146C86880B2704701617047416156
:1008D00070470AB1016100E041617047C160704733
:1008E0004FF480320A438261816182618269826948
:1008F000704702460020434B18684FF6807318403B
:1009000040EA021008433F4B186070473E49C861F7
:100910007047F0B50A46002300240021002500F0AE
:100920000046B6F1004F02D1364EF16901E0354E76
:100930007168C0F3034583B200F44016B6F5401F5A
:1009400008D121F070612F4E766826F070662D4F29
:100950007E6012E000F48016B6F5801F06D10326F3
:1009600006FA05F4A14341F0706106E0460D360138
:1009700003FA06F6B14341F0706122B1460D36012B
:1009800003FA06F6314300F00046B6F1004F02D1FB
:100990001C4EF16101E01B4E7160F0BD30B50022CC
:1009A0008B071C0F0F2303FA04F2164B08338C102D
:1009B00053F824309343134C08348D1044F82530F9
:1009C00023468C1053F824308C07240F00FA04F4CB
:1009D00023430C4C08348D1044F8253030BD0A49AF
:1009E000DC3108607047000000080140000C014045
:1009F000001001400014014000180140001C01409B
:100A0000002001400000014000002042DF48006853
:100A100040F00100DD49086008464068DC490840B4
:100A2000DA49486008460068DA490840D749086052
:100A30000846006820F4802008600846406820F4DA
:100A4000FE0048604FF41F0088607047CF49096876
:100A500021F48031CD4A11601146096821F48021CA
:100A60001160B0F5803F03D0B0F5802F0ED106E0C5
:100A7000C649096841F48031C44A116007E0C3499E
:100A8000096841F4A021C14A116000E000BF00BF25
:100A9000704710B501460022002300204A11012AA8
:100AA00002D1BA4C236806E0022A02D1B74C236A6D
:100AB00001E0B64C636A01F01F02012494401C401F
:100AC0000CB1012000E0002010BD38B500200090DE
:100AD0000024002500BF3120FFF7DBFF054600980A
:100AE000401C00900098B0F5A06F01D0002DF2D00E
:100AF0003120FFF7CEFF08B1012400E0002420469A
:100B000038BD01460020A14A106820F0F80040EAF4
:100B1000C10010607047A04908607047024600207D
:100B20009A4B586820F47C1042EA01031843974B13
:100B30005860704798490866704701460020934AFC
:100B4000506820F003000843506070478F484068A9
:100B500000F00C007047014600208C4A506820F0DD
:100B6000F00008435060704701460020874A5068F3
:100B700020F4E06008435060704701460020834A3B
:100B8000506820F4605040EAC1005060704729B1BD
:100B90007E4A527A02437D4B5A7204E07B4A527A73
:100BA00082437A4B5A7270477B49D831086070474C
:100BB00001460020754A506820F4404008435060C8
:100BC00070470021714A20321170704A82F820105B
:100BD000012802D004280AD104E001216B4A203206
:100BE000117005E00521694A2032117000E000BF54
:100BF00000BF70476949086070476449096A01434A
:100C0000624A11627047654944390860704730B5DF
:100C100000210022002400235C4D6D6805F00C01CA
:100C200021B1042905D0082923D105E05C4D0560D8
:100C300022E05C4D05601FE0544D6D6805F47012B4
:100C4000524D6D6805F48034022505EB92421CB9C3
:100C5000554D554305600BE04C4D6D6805F400356E
:100C60001DB1524D5543056002E04E4D55430560A0
:100C700002E04B4D056000BF00BF444D6D6805F0BC
:100C8000F00109094A4D6B5C0568DD4045603F4D48
:100C90006D6805F4E061090A454D6B5C4568DD400F
:100CA00085603A4D6D6805F46051C90A404D6B5C32
:100CB0004568DD40C560354D6D6805F44041890BE0
:100CC0003C4D6B5CC568B5FBF3F5056130BD29B1E2
:100CD0002E4A526902432D4B5A6104E02B4A526955
:100CE00082432A4B5A61704729B1284A92690243CC
:100CF000264B9A6104E0254A92698243234B9A610C
:100D0000704729B1214AD2690243204BDA6104E0DD
:100D10001E4AD26982431D4BDA61704729B11B4AD2
:100D2000D2680243194BDA6004E0184AD268824361
:100D3000164BDA60704729B1144A12690243134B0B
:100D40001A6104E0114A12698243104B1A6170471C
:100D500012494039086070470F49C86470470B4911
:100D6000C87170470948406A40F08070074948627E
:100D7000704701460020054A92680A400AB10120E6
:100D800000E000207047014988727047001002405F
:100D90000000FFF8FFFFF6FE0000424280044242DE
:100DA00000127A00001BB70000093D00808D5B0037
:100DB000140000202400002010B50446FE488442A0
:100DC00008D10121C014FFF7A9FF0021E014FFF7AB
:100DD000A5FFC4E0B4F1804F08D101210846FFF718
:100DE000AAFF00210120FFF7A6FFB8E0F3488442E4
:100DF00008D101210220FFF79EFF00210220FFF70A
:100E00009AFFACE0EE48844208D101210420FFF7AC
:100E100092FF00210420FFF78EFFA0E0E948844202
:100E200008D101210820FFF786FF00210820FFF7E5
:100E300082FF94E0E448844208D101211020FFF7AA
:100E40007AFF00211020FFF776FF88E0DF48844218
:100E500008D101212020FFF76EFF00212020FFF79D
:100E60006AFF7CE0DA48844208D101214014FFF790
:100E700055FF00216014FFF751FF70E0D548844210
:100E800009D10121C804FFF749FF00214FF40020D8
:100E9000FFF744FF63E0D048844209D101210805EF
:100EA000FFF73CFF00214FF48010FFF737FF56E0BB
:100EB000CA48844209D101214805FFF72FFF0021CC
:100EC0004FF40010FFF72AFF49E0C548844208D1DB
:100ED00001214020FFF72FFF00214020FFF72BFFCB
:100EE0003DE0C048844208D101218020FFF723FF64
:100EF00000218020FFF71FFF31E0BB48844208D16A
:100F000001218015FFF717FF0021A015FFF713FF40
:100F100025E0B648844209D101210804FFF7FEFE0E
:100F200000214FF48030FFF7F9FE18E0B04884420A
:100F300009D101214804FFF7F1FE00214FF40030F0
:100F4000FFF7ECFE0BE0AB48844208D10121880496
:100F5000FFF7E4FE00214FF48020FFF7DFFE10BD15
:100F600000220288944B98420ED0994B98420BD0A5
:100F7000B0F1804F08D0914B984205D0904B9842E9
:100F800002D0904B984204D14FF68F731A404B8891
:100F90001A438D4B984207D08C4B984204D04FF6A1
:100FA000FF431A40CB881A4302808B8883850B88C5
:100FB0000385814B98420BD0854B984208D08B4BD0
:100FC000984205D08A4B984202D08A4B984201D170
:100FD0000B7A038601238382704770B500240022B8
:100FE0000023058C4FF6FE7635400584028C8388FD
:100FF000048B4FF68F752C40B51E2C400D882C436A
:10100000751E2A400D892A434D882A436A4DA842FD
:101010000BD06F4DA84208D0744DA84205D0744D36
:10102000A84202D0734DA84213D14FF6F7752A405B
:101030004D892A434FF6FB752A408D882A434FF687
:10104000FF652B404FF6FF552B408D892B43CD89F3
:101050002B4383800483CD888586028470BD70B560
:10106000002400220023058C4FF6EF7635400584DE
:10107000028C8388048B48F6FF752C404FF6FF45A1
:101080002C400D884FF6FF7606EA05252C434FF6D7
:10109000DF752A400D8906EA05152A434D8806EAC0
:1010A00005152A43444DA84202D0494DA8421DD1FE
:1010B0004FF67F752A404D894FF6FF7606EA0515F3
:1010C0002A434FF6BF752A408D8806EA05152A4344
:1010D0004FF6FF352B404FF2FF752B408D8906EA06
:1010E00085052B43CD8906EA85052B438380048340
:1010F000CD880587028470BD70B5002400220023CE
:10110000058C4FF6FF6635400584028C8388848BFE
:101110004FF68F752C404FF6FC752C400D882C43F4
:101120004FF6FF552A400D894FF6FF7606EA052552
:101130002A434D8806EA05252A431F4DA84202D0BE
:10114000234DA8421DD14FF2FF752A404D894FF61D
:10115000FF7606EA05252A434FF6FF352A408D889B
:1011600006EA05252A434EF6FF752B404DF6FF751E
:101170002B408D8906EA05152B43CD8906EA051516
:101180002B4383808483CD888587028470BD70B5AE
:10119000002200230024058C4EF6FF76354005849E
:1011A000038C8488828B48F6FF752A404FF6FF45F2
:1011B0002A400D8820E00000002C0140000400407F
:1011C00000080040000C00400010004000140040E7
:1011D00000340140004C01400050014000540140E7
:1011E00000180040001C004000200040004001406A
:1011F00000440140004801404FF6FF7606EA05250D
:101200002A434DF6FF752B400D8906EA05352B4321
:101210004D8806EA05352B43FA4DA84202D0FA4D17
:10122000A84208D14BF6FF752C408D894FF6FF760A
:1012300006EA85152C4384808283CD88A0F840502F
:10124000038470BD828B4FF2FF331A408283828BFE
:101250004FF6FF7303EA01231A4382837047F0B508
:101260000C461546002200210026078C4EF6FF7C16
:1012700007EA0C070784828B018C4FF6FF7707EA99
:10128000043640F6FF473A404FF6FF7707EA052756
:101290003A434FF6FF7707EA03373A43D94FB8424C
:1012A0000ED0D94FB8420BD0B0F1804F08D0D74FF5
:1012B000B84205D0D64FB84202D0D64FB84206D178
:1012C0004DF6FF77394046F48057394305E047F63D
:1012D000FF57394044F48057394382830184F0BD7D
:1012E000828B4FF6F3731A408283828B0A43828388
:1012F0007047F0B50C461546002200210026078CE9
:101300004FF6FF6C07EA0C070784828B018C4FF6BF
:10131000FF7707EA04264FF60C773A404FF6FF773F
:1013200007EA03172F433A43B64FB8420ED0B64FE1
:10133000B8420BD0B0F1804F08D0B44FB84205D0BE
:10134000B34FB84202D0B34FB84206D14FF6FF5761
:10135000394046F48077394305E04FF2FF57394072
:1013600044F48077394382830184F0BD028B4FF2CD
:10137000FF331A400283028B4FF6FF7303EA012307
:101380001A4302837047F0B50C461546002200212F
:101390000026078C4FF6EF7C07EA0C070784028BC8
:1013A000018C4FF6FF7707EA041640F6FF473A40F4
:1013B0004FF6FF7707EA03373A434FF6FF7707EA1E
:1013C00005273A438F4FB8420ED08F4FB8420BD00B
:1013D000B0F1804F08D08D4FB84205D08C4FB84245
:1013E00002D08C4FB84206D14FF6DF77394046F035
:1013F0001007394305E04FF65F77394044F0100796
:10140000394302830184F0BD028B4FF6F3731A4017
:101410000283028B0A4302837047F0B50C461546DF
:1014200000220021068C4FF6FE773E400684028B98
:10143000018C4FF60C7632407E1C06EA03162E43D2
:101440003243704EB0420ED06F4EB0420BD0B0F16E
:10145000804F08D06D4EB04205D06D4EB04202D0E4
:101460006C4EB04206D14FF6FD76314044F0010695
:10147000314305E04FF6F576314044F00106314343
:1014800002830184F0BD70B505460C465D48854277
:101490000ED05D4885420BD0B5F1804F08D05B4837
:1014A000854205D05A48854202D05A48854200D12B
:1014B00000E000BF208850B92389A28861882846AF
:1014C000FFF7ABFFE1882846FFF79EFF25E0208865
:1014D00004280AD12389A28861882846FFF753FF90
:1014E000E1882846FFF742FF17E0208808280AD144
:1014F0002389A28861882846FFF7FBFEE1882846F9
:10150000FFF7EEFE09E02389A28861882846FFF7ED
:10151000A6FEE1882846FFF795FE70BD2DE9F04153
:1015200005460C4600260127608808B9022600E01F
:101530000026A088012801D1022700E00127208889
:10154000A0B92389A28861882846FFF766FFE18851
:101550002846FFF759FF23893A4631462846FFF7C8
:1015600012FFE1882846FFF701FF13E02389A288D4
:1015700061882846FFF707FFE1882846FFF7F6FE57
:1015800023893A4631462846FFF747FFE188284637
:10159000FFF73AFFBDE8F0810A884B881A438B8831
:1015A0001A43CB881A430B891A434B891A438B89F8
:1015B0001A43A0F8442070474FF6FF718180002144
:1015C0000180C1804180017270470021018041800B
:1015D0008180C180018141818181C1817047002169
:1015E00001804180012181800021C18001817047FB
:1015F0000021018041808180C18001814181818100
:1016000070470000002C01400034014000040040FD
:1016100000080040000C004021B1028842F00102A5
:10162000028004E002884FF6FE731A400280704781
:1016300031B1B0F8442042F40042A0F8442005E063
:10164000B0F84420C2F30E02A0F8442070471AB14B
:1016500083890B43838102E083898B4383817047B5
:101660008182704741EA0203A0F8483070471AB1FE
:1016700083890B43838102E083898B438381704795
:1016800001894FF6F8721140018170470A46002126
:1016900001894FF68F73194011430181704730B5AE
:1016A00004460D4629462046FFF7F0FF208940F00A
:1016B0000700208130BD2DE9F04104460D46164655
:1016C0001F46602D06D13B46012231462046FFF7DA
:1016D0005AFE05E03B46012231462046FFF79DFEBB
:1016E00029462046FFF7D2FF208940F007002081DD
:1016F000BDE8F08130B50C4600210189C9B24FF632
:10170000FF7505EA0325154325432943018130BDB3
:101710002DE9F04105460E461746984600244346FB
:101720003A4631462846FFF7E5FF2C894FF6F87018
:10173000044044F007044FF68F70044044F07004F6
:101740002C81BDE8F081F0B504460D4616461F46D3
:101750003B46324629462046FFF7CCFF208940F41D
:1017600080402081F0BD0185828270470A460021B9
:1017700001884FF68F731940114301807047F0B50F
:101780000C4615461E460021002200230189028BCB
:10179000038C4FF6F877394021434FF6FC473A4027
:1017A00040F201173A434FF6DD773B404FF6FF77A3
:1017B00007EA06172F433B43018102830384F0BDF0
:1017C0000A460021018B4FF68F73194011430183A4
:1017D00070470A460021018B48F6FF7319404FF607
:1017E000FF7303EA02231943018370470A4600216D
:1017F000818B4FF68F7319401143818370470A46DE
:101800000021818B48F6FF7319404FF6FF7303EAFE
:10181000022319438183704721B1028842F080027C
:10182000028004E002884FF67F731A4002807047FE
:1018300021B1828842F00402828004E082884FF65F
:10184000FB731A408280704721B1828842F00802FF
:10185000828004E082884FF6F7731A4082807047D6
:1018600021B1828842F00102828004E082884FF632
:10187000FE731A40828070470A460021018B4FF6A2
:10188000F77319401143018370470A460021018B09
:101890004FF2FF7319404FF6FF7303EA0223194317
:1018A000018370470A460021818B4FF6F773194078
:1018B0001143818370470A460021818B4FF2FF73E9
:1018C00019404FF6FF7303EA0223194381837047DF
:1018D0000A460021018B4FF6FB7319401143018327
:1018E00070470A460021018B4FF6FF3319404FF62F
:1018F000FF7303EA02231943018370470A4600215C
:10190000818B4FF6FB7319401143818370470A4660
:101910000021818B4FF6FF3319404FF6FF7303EA26
:1019200002231943818370470A460021018B4FF639
:101930007F7319401143018370470A460021018BD0
:10194000C1F30E014FF6FF7303EA0223194301832B
:1019500070470A460021818B4FF67F73194011436F
:10196000818370470A460021818BC1F30E014FF637
:10197000FF7303EA02231943818370470A4600215B
:10198000018C4FF6FD7319401143018470470A46DC
:101990000021018C4FF6F773194011430184704701
:1019A0000A460021018C4FF6DF7319404FF6FF7392
:1019B00003EA02131943018470470A460021018C8F
:1019C0004FF67F7319404FF6FF7303EA0213194372
:1019D000018470470A460021018C4FF6FF531940DD
:1019E0004FF6FF7303EA02231943018470470A4646
:1019F0000021018C4FF2FF7319404FF6FF7303EA89
:101A000002231943018470470A460021018C4DF6D8
:101A1000FF7319404FF6FF7303EA02331943018441
:101A2000704730B5002301248C40A3B2048C9C4342
:101A30000484048C02FA01F5ADB22C43048430BD59
:101A400030B5002304248C40A3B2048C9C4304844E
:101A5000048C02FA01F5ADB22C43048430BD70B59C
:101A60000346002000241846183001258D40ACB2F2
:101A70001D8CA5431D8409B1082909D100EB610023
:101A8000056825F0700505600568154305600EE0E2
:101A90000D1FC5F34E052844056825F4E045056093
:101AA00005684FF6FF7606EA02263543056070BDED
:101AB00021B1028842F00202028004E002884FF65F
:101AC000FD731A400280704721B1028842F004027F
:101AD000028004E002884FF6FB731A4002807047D0
:101AE00021B1828842F08002828004E082884FF631
:101AF0007F731A408280704702884FF6F7731A404E
:101B0000028002880A430280704782884FF68F73F2
:101B10001A40828082880A438280704702894FF689
:101B2000F8731A40028102890A43028170470289D0
:101B30004FF67F731A40028102890A43028170477F
:101B4000818470478185704781867047018770471F
:101B500081877047A0F84010704702884FF6FF4316
:101B60001A40028002880A43028070470146888E2C
:101B700070470146088F70470146888F70470146BD
:101B8000B1F8400070470146888C70470146088DC7
:101B9000704702460020138A0B400BB1012000E081
:101BA00000207047CA430282704730B502460020C9
:101BB00000230024158A05EA0103958905EA01043A
:101BC00013B10CB1012000E0002030BDCA430282F5
:101BD0007047000010B50446FB48844209D101213A
:101BE0008803FFF79BF800214FF48040FFF796F839
:101BF00032E0F648844209D101214804FFF79BF8FE
:101C000000214FF40030FFF796F825E0F0488442B9
:101C100009D101218804FFF78EF800214FF48020BC
:101C2000FFF789F818E0EB48844209D10121C80484
:101C3000FFF781F800214FF40020FFF77CF80BE05C
:101C4000E548844208D101210805FFF774F8002116
:101C50004FF48010FFF76FF810BD2DE9F04786B004
:101C600005460E460024A24600BFA1460027B089C3
:101C700000B100BF2F462C8A4CF6FF700440F0885C
:101C800004432C82AC894EF6F3100440B0883189AD
:101C90000843718908430443AC81AC8A4FF6FF4086
:101CA0000440B0890443AC8201A8FEF7B0FFC648E7
:101CB000874202D1DDF810A001E0DDF80CA0A88970
:101CC00000F4004040B10AEBCA0000EB0A10316892
:101CD0004900B0FBF1F807E00AEBCA0000EB0A107C
:101CE00031688900B0FBF1F86420B8FBF0F0040122
:101CF0002009642101FB1089A88900F4004040B14B
:101D0000322000EBC900B0FBF1F000F00700044303
:101D100008E0322000EB09106421B0FBF1F000F084
:101D20000F0004432C8106B0BDE8F0874FF4165134
:101D3000016000218180C18001810C21418100214D
:101D40008181704710B502460020108A4FF2FF03D0
:101D500018400B884C8823438C882343CC8823432A
:101D60001843108210BD0021018041808180C18014
:101D7000704721B1828942F40052828104E0828955
:101D80004DF6FF731A4082817047F0B50346002478
:101D900000260025002040F66A17B94200D100BF96
:101DA0001846C1F3421401F01F06012707FA06F591
:101DB000012C01D10C3004E0022C01D1103000E0E4
:101DC00014301AB107682F43076002E00768AF4379
:101DD0000760F0BD1AB1838A0B43838202E0838AD5
:101DE0008B4383827047028A4FF6F0731A40028257
:101DF000028A0A430282704782894FF2FF731A40B7
:101E0000828182890A438281704721B1828942F0AE
:101E10000202828104E082894FF6FD731A408281BA
:101E20007047028A4FF6DF731A400282028A0A4321
:101E30000282704721B1028A42F48042028204E0A9
:101E4000028A4BF6FF731A4002827047C1F3080200
:101E50008280704701468888C0F3080070478189F6
:101E600041F0010181817047028BD2B20283028B63
:101E700042EA012202837047028B02F47F4202830E
:101E8000028B0A430283704721B1828A42F020020A
:101E9000828204E0828A4FF6DF731A4082827047A2
:101EA00021B1828A42F01002828204E0828A4FF6D7
:101EB000EF731A408282704721B1828A42F0080291
:101EC000828204E0828A4FF6F7731A40828270475A
:101ED00021B1828942F40042828103E08289C2F307
:101EE0000E028281704721B1828A42F400628282AE
:101EF00004E0828A4FF2FF731A4082827047828A1E
:101F00004FF6FB731A408282828A0A4382827047AC
:101F100021B1828A42F00202828204E0828A4FF674
:101F2000FD731A408282704702460020B1F5007F9F
:101F300000D100BF13880B400BB1012000E000204E
:101F4000704701F40072B2F5007F00D100BFCA43B0
:101F50000280704770B5024600240023002500204F
:101F600040F66A16B14200D100BFC1F3421501F03C
:101F70001F03012606FA03F3012D02D1968933408F
:101F800006E0022D02D1168A334001E0968A3340E2
:101F90000C12012606FA04F41688344013B10CB171
:101FA000012000E0002070BD10B50022002340F6A3
:101FB0006A14A14200D100BF0A1201249440A3B2C6
:101FC000DC43048010BD00000038014000440040A4
:101FD00000480040004C00400050004010B504464E
:101FE000FA48844208D101214015FEF797FE0021EE
:101FF0006015FEF793FE17E0F548844208D10121F1
:102000000015FEF78BFE00212015FEF787FE0BE082
:10201000F048844208D10121C803FEF77FFE002169
:102020004FF40040FEF77AFE10BD30B502460020A6
:1020300000235068E84C20400D790C6844EA0524E0
:10204000204350609068E54C2040D1E902542C4375
:102050004D7944EA450420439060D06A20F4700032
:102060000C7C641EE4B2234340EA0350D06230BDCE
:1020700000210160017141718160C1600121017421
:10208000704721B1826842F00102826003E08268F9
:1020900022F001028260704721B1826842F48072AE
:1020A000826003E0826822F480728260704710B51B
:1020B0000023CBB21AB144681C43446002E0446878
:1020C0009C43446010BD816841F008018160704705
:1020D000014600208A6802F008020AB1012000E0EF
:1020E00000207047816841F004018160704701461B
:1020F00000208A6802F004020AB1012000E00020FA
:10210000704721B1826842F4A002826003E08268D5
:1021100022F4A00282607047014600208A6802F41F
:1021200080020AB1012000E00020704710B50A4685
:1021300000210023416821F46041531E41EA4331EC
:10214000416010BD21B1426842F40062426003E088
:10215000426822F4006242607047F0B504460D46C2
:1021600000200021092D11DDE068A5F10A0606EB2B
:102170004607072606FA07F18843A5F10A0606EB8B
:10218000460603FA06F10843E0600CE0206905EB1F
:102190004507072606FA07F1884305EB450603FACB
:1021A00006F108432061072A0FDA606B561E06EB22
:1021B00086071F2606FA07F18843561E06EB860699
:1021C00005FA06F10843606322E00D2A0FDA206B5E
:1021D000D61F06EB86071F2606FA07F18843D61F8F
:1021E00006EB860605FA06F10843206310E0E06A74
:1021F000A2F10D0606EB86071F2606FA07F18843B3
:10220000A2F10D0606EB860605FA06F10843E06228
:10221000F0BD21B1826842F48012826003E08268DE
:1022200022F48012826070470146C86C80B2704709
:1022300066484C300068704721B1426842F48062C1
:10224000426003E0426822F480624260704721B13C
:10225000426842F48052426003E0426822F48052B5
:10226000426070470A460021816821F4E041114331
:102270008160704721B1826842F40042826003E0CD
:10228000826822F400428260704721B1826842F481
:102290000212826003E0826822F4021282607047B8
:1022A000014600208A6802F400120AB1012000E011
:1022B00000207047F0B50446154600200022002695
:1022C000092911DDE068A1F10A0707EB470C072790
:1022D00007FA0CF29043A1F10A0707EB470703FA4C
:1022E00007F21043E0600CE0206901EB410C072786
:1022F00007FA0CF2904301EB410703FA07F210438F
:102300002061A06BC0F30156EF1C06F1010CA7EB96
:102310000C0707EB870C1F2707FA0CF29043EF1C02
:1023200006F1010CA7EB0C0707EB870701FA07F290
:102330001043A063F0BD10B50A4600210023816B55
:1023400021F44011531E41EA0351816310BD08B5C9
:10235000002300930090009B0B440093009B1A60A5
:1023600008BD08B5024600200090009201F1280047
:10237000009B184400900098006880B208BD0A468F
:1023800000214168164B194011434160704741627A
:10239000826270470A460021416821F01F01114303
:1023A0004160704740B109490831096841F40001B2
:1023B000064A0832116007E004490831096821F42F
:1023C0000001024A083211607047000000240140F9
:1023D00000280140003C0140FFFEF0FFFDF7F1FF47
:1023E000FFFD3FFF0246002013680B400BB10120A8
:1023F00000E000207047CA430260704770B5024693
:102400000020002300240B125568CEB205EA060412
:1024100015681D4015B10CB1012000E0002070BD11
:1024200000220A12D3430360704700001CB500204D
:10243000019000904FF4967000F0F0F801AA00218E
:10244000532000F086FB4FF4967000F0E7F82B2045
:1024500000906A463121532000F04DFB322000F0FD
:10246000DDF80A2000906A462C21532000F043FB3F
:10247000322000F0D3F8282000906A462D21532006
:1024800000F039FB322000F0C9F8002000906A46C5
:102490002E21532000F02FFB322000F0BFF86A46B7
:1024A0001E21532000F027FB322000F0B7F86A46C7
:1024B0001F21532000F01FFB322000F0AFF86A46C6
:1024C0002021532000F017FB4FF4FA7000F0A6F81B
:1024D0001CBD2DE9FE4300200290052000F0E2F92A
:1024E000C82000F09BF802AA0021532000F031FB25
:1024F000C82000F093F806236A463221532000F0EA
:1025000097FB9DF800009DF8011000EB0120224987
:1025100008709DF802009DF8031000EB01201E4991
:1025200048709DF804009DF8051000EB01201A4941
:102530008870087805F0E4F9804605F031F8064621
:10254000164A174B04F038FE044604F003FC124907
:102550004860487805F0D4F9804605F021F8064631
:102560000E4A0F4B04F028FE044604F0F3FB0A4920
:102570008860887805F0C4F9804605F011F80646B1
:10258000064A074B04F018FE044604F0E3FB024938
:10259000C860BDE8FE83000000010020DE718A8E65
:1025A000E4F26F3F10B50446224610210D48FEF7B5
:1025B00090F90D48047010BD08B501210420FEF704
:1025C00093FB10208DF80300ADF8000003208DF878
:1025D000020069460348FEF7CBF80020FFF7E2FF50
:1025E00008BD000000080140280000204FF0E02056
:1025F000006920F004004FF0E0210861092036490D
:1026000008700846007800EB4001C1EBC0104FF69F
:10261000FF7101EAC000314908807047002120F0B5
:102620007F402D4A127842434FF0E0235A61002246
:102630009A6101221A6100BF4FF0E022116901F096
:1026400001021AB101F48032002AF5D000224FF0C5
:10265000E0231A619A617047002100B9704720F0A9
:102660007F401E4A128842434FF0E0235A61002205
:102670009A6101221A6100BF4FF0E022116901F056
:1026800001021AB101F48032002AF5D000224FF085
:10269000E0231A619A6100BFE0E770B504460026A6
:1026A00000254FF4FA7094FBF0F0C6B24FF4FA70C4
:1026B00094FBF0F100FB114085B205E04FF4FA7095
:1026C000FFF7CAFF701EC6B2002EF7D115B128461B
:1026D000FFF7C2FF70BD00002A0000202C00002080
:1026E00070B588B006460C4615466648864204D149
:1026F0000121C014FEF7F8FA07E001211020FEF7CF
:10270000F3FA01214803FEF7EFFA18208DF81F00B5
:102710000001ADF81C0003208DF81E0007A95A48DF
:10272000FEF726F80020ADF81600ADF81200ADF85F
:102730001440ADF8105004A93046FEF711FC70208B
:10274000ADF800000120ADF802000220ADF808004D
:102750000020ADF8060069463046FEF780FC694669
:102760003046FEF7C9FC01213046FEF761FF082123
:102770003046FFF78AF808213046FFF793F8012129
:102780003046FFF749F801213046FEF745FF08B013
:1027900070BD7FB506460C4615463C48864207D1BB
:1027A00001211020FEF7ADFA36208DF8000006E07A
:1027B00001212020FEF7A5FA37208DF80000002027
:1027C000ADF80600ADF80840ADF8045001A9304658
:1027D000FEF7C6FB012211463046FEF738FF012006
:1027E0008DF803008DF801008DF802006846FDF7B2
:1027F000F6FE01213046FEF70FFF7FBD10B5012127
:102800002248FFF7D2F901280DD121480068401C69
:102810001F49086010F1060F01D300200860012154
:102820001A48FFF7D3F910BD10B501211948FFF779
:10283000BCF9012824D11848007EC0F38200072883
:1028400017D116480088401C80B2144908803C28E3
:1028500012DB1348008820F0100011490880002086
:1028600002F099FC0C48007E20F001000A4908762D
:1028700002E000200949088001210648FFF7A6F977
:1028800010BD0000002C014000100140001000406D
:102890003400002000140040E3000020300000203D
:1028A00040000020FA490880704708B5012108203F
:1028B000FEF71AFA14208DF803004FF44060ADF8CB
:1028C000000003208DF802006946F248FDF750FF32
:1028D0000520FFF7E7FF4FF40061EE48FDF7F5FF35
:1028E0004FF48061EB48FDF7F0FF08BD10B54FF4E1
:1028F0000061E848FDF7E9FF4FF48061E548FDF726
:10290000E4FFE3490888FFF789FE4FF40061E148DE
:10291000FDF7DDFFDE490888FFF780FE4FF4806198
:10292000DC48FDF7D4FF10BD10B54FF40061D94865
:10293000FDF7CDFF4FF48061D648FDF7C8FFD449BD
:102940000888FFF76BFE4FF48061D248FDF7BDFFAA
:102950004FF40061CF48FDF7B8FFCD490888FFF775
:102960005DFE10BD10B504464FF40061C948FDF787
:10297000ACFFC7490888FFF751FE4FF48061C54896
:10298000FDF7A3FFC2490888FFF748FE0EE0601E6E
:10299000041E07D0C0A1C54800F0EFFFFFF7C4FF39
:1029A000012010BDBA490888FFF738FE4FF40061D6
:1029B000B848FDF770FF0028E9D14FF48061B548B1
:1029C000FDF785FF0020ECE710B54FF48061B148BA
:1029D000FDF77DFF4FF40061AE48FDF778FFAC498D
:1029E0000888FFF71BFE4FF48061AA48FDF76DFFD2
:1029F000A7490888FFF712FE4FF48061A548FDF74C
:102A000066FF10BD10B54FF48061A248FDF75FFF6F
:102A10004FF400619F48FDF758FF9D490888FFF774
:102A2000FDFD4FF480619B48FDF74FFF98490888F2
:102A3000FFF7F4FD4FF480619648FDF748FF10BDA5
:102A400070B5044600254FF480619248FDF73FFFC2
:102A500023E004F0800028B14FF400618D48FDF7B9
:102A600034FF04E04FF400618A48FDF730FF600650
:102A7000040E87490888FFF7D1FD4FF4806185482F
:102A8000FDF723FF82490888FFF7C8FD4FF48061F6
:102A90008048FDF71CFF681CC5B2082DD9DB70BD4E
:102AA00070B5002500244FF400617A48FDF70DFF52
:102AB0001DE04FF480617748FDF709FF74490888ED
:102AC000FFF7ACFD4FF480617248FDF7FEFE600633
:102AD000040E4FF400616F48FDF7DDFE08B1601C85
:102AE000C4B26B490888FFF799FD681CC5B2082D70
:102AF000DFDB204670BD2DE9F04105460E46144649
:102B000000276806070EFFF7F1FE3846FFF798FF2B
:102B100041F28830FFF726FF10B10120BDE8F081B7
:102B20003046FFF78DFF41F28830FFF71BFF08B1F9
:102B30000120F3E74CB12078FFF782FF41F28830A3
:102B4000FFF710FF08B10120E8E7FFF7EDFE0020D6
:102B5000E4E72DE9F04104460D46164600276006DD
:102B6000070EFFF7C3FE3846FFF76AFF41F28830D1
:102B7000FFF7F8FE10B10120BDE8F0812846FFF70D
:102B80005FFF41F28830FFF7EDFE08B10120F3E767
:102B9000FFF7ACFE791CC8B2FFF752FF41F2883054
:102BA000FFF7E0FE08B10120E6E7FFF779FF30709C
:102BB000FFF728FFFFF7B8FE0020DDE72DE9F04121
:102BC00005460E4614461F464FF0000868064FEAB9
:102BD0001068FFF78BFE4046FFF732FF41F2883066
:102BE000FFF7C0FE10B10120BDE8F0813046FFF7CD
:102BF00027FF41F28830FFF7B5FE08B10120F3E767
:102C00000DE02078FFF71CFF41F28830FFF7AAFEA5
:102C100008B10120E8E7641C0A20FFF7FFFC381E1A
:102C2000A7F10101CFB2ECD1FFF77EFE0020DBE778
:102C30002DE9F04106460F4614461D464FF00008A8
:102C40004FEA4608FFF752FE08F0FF00FFF7F8FED4
:102C500041F28830FFF786FE10B10120BDE8F08117
:102C60003846FFF7EDFE41F28830FFF77BFE08B1F2
:102C70000120F3E7FFF73AFE08F10101C8B2FFF7C0
:102C8000DFFE41F28830FFF76DFE88B10120E5E7F5
:102C900038000020000C01405761697441636B20CB
:102CA00054696D654F75740D0A00000000380140CD
:102CB00009E0FFF7F5FE2070641C15B9FFF7A2FECE
:102CC00001E0FFF781FE281EA5F10101CDB2F0D190
:102CD000FFF72AFE0020C1E708B501213020FEF7EA
:102CE00003F848208DF803004FF46050ADF8000061
:102CF00003208DF8020069465B48FDF739FD04208A
:102D0000ADF8000069465948FDF732FD08BD70B5C1
:102D100004460D465448844207D1A9B2FDF7BBFDD5
:102D200008B9012070BD0020FCE75048844207D15B
:102D3000A9B2FDF7B0FD08B90120F3E70020F1E7E3
:102D40000020EFE710B54FF400614748FFF7DFFFC1
:102D500080B14748007840F001004549087001E023
:102D6000FF2010BD4FF400613F48FFF7D0FF00285F
:102D7000F6D10CE03E48007800F0010038B13C4844
:102D8000007800F0FE003A4908700020E9E74FF4AF
:102D900000513548FFF7BBFF80B13548007840F05F
:102DA00002003349087001E0FF20DAE74FF40051D8
:102DB0002D48FFF7ACFF0028F6D10CE02C48007836
:102DC00000F0020038B12A48007800F0FD002849E0
:102DD00008700320C5E74FF480512348FFF797FFA1
:102DE00080B12348007840F004002149087001E0D8
:102DF000FF20B6E74FF480511B48FFF788FF0028FB
:102E0000F6D10CE01A48007800F0040038B11848F8
:102E1000007800F0FB00164908700620A1E70421A5
:102E20001248FFF774FF78B11148007840F00800AD
:102E30000F49087001E0FF2093E704210B48FFF7DA
:102E400066FF0028F7D10CE00948007800F0080080
:102E500038B10748007800F0F700054908700920EC
:102E60007FE7FF207DE700000010014000140140D3
:102E70003A00002010B50446012C01D0012000E0EA
:102E8000002002464FF480613648FDF722FD0CB168
:102E9000012000E000203449C87010BD10B5044680
:102EA000012C01D0012000E0002002464FF48051A7
:102EB0002E48FDF70EFD0CB1012000E000202A494C
:102EC000887010BD10B50446012C01D0012000E02F
:102ED000002002464FF480712248FDF7FAFC0CB145
:102EE000012000E000202049487010BD10B50446C4
:102EF000012C01D0012000E0002002468021194869
:102F0000FDF7E7FC0CB1012000E000201649087035
:102F100010BD08B501211420FDF7E6FE10208DF844
:102F200003004FF4B060ADF8000003208DF80200FC
:102F300069460C48FDF71CFC4FF48050ADF80000CA
:102F400069460A48FDF714FC0020FFF7CFFF002078
:102F5000FFF7B8FF0020FFF7A1FF0020FFF78AFF6F
:102F600008BD0000001001403B00002000080140A7
:102F700070B50446002523E004F0800028B14FF42A
:102F80000061F748FDF7A1FC04E04FF40061F4484C
:102F9000FDF79DFCF3490888FFF740FB4FF4806183
:102FA000EF48FDF792FCEF490888FFF737FB4FF435
:102FB0008061EB48FDF78BFC6006040E681CC5B20F
:102FC000082DD9DB70BD10B50446FFF78FFC7820C3
:102FD000FFF7CEFF41F28830FFF7C4FC18B1FFF7CE
:102FE000A3FC012010BD4020FFF7C2FF41F2883052
:102FF000FFF7B8FC18B1FFF797FC0120F2E7204675
:10300000FFF7B6FF41F28830FFF7ACFC18B1FFF7CD
:103010008BFC0120E6E7FFF787FC0020E2E710B514
:103020000446FFF763FC7820FFF7A2FF41F28830E7
:10303000FFF798FC18B1FFF777FC012010BD0020C6
:10304000FFF796FF41F28830FFF78CFC18B1FFF7CD
:103050006BFC0120F2E72046FFF78AFF41F288303F
:10306000FFF780FC18B1FFF75FFC0120E6E7FFF7F0
:103070005BFC0020E2E710B5AE20FFF7D0FF202078
:10308000FFF7CDFF1020FFF7CAFFB020FFF7C7FF03
:10309000A120FFF7C4FFC820FFF7C1FF0020FFF702
:1030A000BEFF1020FFF7BBFF4020FFF7B8FF8120D5
:1030B000FFF7B5FF7F20FFF7B2FFA620FFF7AFFFB6
:1030C000A820FFF7ACFF3F20FFF7A9FFA420FFF7E0
:1030D000A6FFD320FFF7A3FF0020FFF7A0FFD52016
:1030E000FFF79DFFF020FFF79AFFD920FFF797FF2A
:1030F0002220FFF794FFDA20FFF791FF1220FFF75D
:103100008EFFDB20FFF78BFF2020FFF788FF8D204D
:10311000FFF785FF1420FFF782FFAF20FFF77FFF47
:1031200010BD70B505460C4605F1B001C8B2FFF7F9
:1031300076FF8C490888FFF771FA102141EA1410D4
:10314000FFF76DFF87490888FFF768FA04F00F0062
:10315000FFF765FF83490888FFF760FA70BD70B517
:103160000024002580480078C0F3C00018B3002177
:103170007E48FEF751FA0120FFF794FB15E004F1B9
:10318000B001C8B2FFF74BFF1020FFF748FF002047
:10319000FFF745FF002504E00020FFF714FF681C3F
:1031A000C5B2842DF8DB601CC4B2082CE7DB01211A
:1031B0006E48FEF731FA70BD70B5044600256A48C6
:1031C0000078C0F3C00090B104F1B001C8B2FFF7BD
:1031D00026FF1020FFF723FF0020FFF720FF04E069
:1031E0000020FFF7F0FE681CC5B2842DF8DB70BD2F
:1031F00070B50446002600255B480078C0F3C00087
:1032000090B10FE000212846FFF78BFF002605E074
:1032100014F8010BFFF7D7FE701CC6B2802EF7DB47
:10322000681CC5B2082DEDDB70BD2DE9F0410446E8
:103230000E4615460027B8464B480078C0F3C0003C
:10324000E0B11420FFF72EFB4FF0020813E0F1B2BB
:10325000E0B2FFF766FF002705E015F8010BFFF766
:10326000B2FE781C87B2102FF7DB601C84B2A8F185
:1032700001001FFA80F8B8F1000FE8DCBDE8F0812A
:103280000FB42DE9F041CCB007460C460025A84606
:1032900001AE55A8009001A8009A549902F080F858
:1032A0000020009030480078C0F3C00030B3A01C6C
:1032B000C4B21420FFF7F6FA1DE03078203800F091
:1032C000FF087E2C02DD0224781CC7B22146384656
:1032D000FFF727FF002509E008EB4801244A02EB2D
:1032E0004101485DFFF76FFE681CC5B2062DF3DB98
:1032F000A01DC4B2761C30780028DED14CB0BDE8E9
:10330000F0015DF814FB0FB42DE9F041CCB0064696
:103310000D460024A04601AF55A8009001A8009AD0
:10332000549902F03DF8002000900F480078C0F357
:10333000C000002841D0A81CC5B21420FFF7B2FA83
:1033400038E03878203800F0FF08802D02DD0225B3
:10335000B01CC6B229463046FFF7E3FE002411E058
:10336000000C014038000020400000200010004008
:10337000167B000804EB0811124A505CFFF723FE8D
:10338000601CC4B2082CF5DB711CC8B22946FFF7DB
:10339000C8FE002408E004EB08110831094A505C1B
:1033A000FFF711FE601CC4B2082CF4DB05F1080025
:1033B000C5B27F1C38780028C3D14CB0BDE8F001FD
:1033C0005DF814FB3E7D000808B5002000906A46B9
:1033D000E7214020FFF7BDFB9DF8000058B12EA16A
:1033E000314800F0CAFA3148008820F00100401C42
:1033F0002E49088003E02EA12B4800F0BEFA0120E0
:10340000FFF72AF96A4600215320FFF7A2FB9DF837
:103410000000E5280BD12AA1234800F0AEFA23488A
:10342000008820F00200801C2049088003E028A1C9
:103430001D4800F0A2FA0120FFF70EF96A46FF21AD
:103440005020FFF786FB58B926A1174800F095FADF
:103450001648008820F00400001D1449088003E08D
:1034600024A1114800F089FA0120FFF7F5F8AE20F9
:10347000FFF7D5FD58B923A10B4800F07EFA0B48A1
:10348000008820F0080008300849088003E020A1E7
:10349000054800F072FA08BD205348543230203AF3
:1034A0004F6B0D0A00000000003801404000002072
:1034B000205348543230203A4572726F720D0A0020
:1034C0004144584C333435203A4F6B0D0A0000000C
:1034D0004144584C333435203A4572726F720D0AAC
:1034E00000000000454550524F4D203A4F6B0D0AE9
:1034F00000000000454550524F4D203A4572726F12
:10350000720D0A004F4C4544203A4F6B0D0A0000E3
:103510004F4C4544203A4572726F720D0A0000000C
:1035200010B50022FE214020FFF7E5FA10BD08B5D6
:10353000002000906A46E7214020FFF70AFB9DF833
:10354000000008BD70B503460C4615460021002654
:10355000002200BF13E0985C414008260BE001F018
:10356000800020B1312080EA4100C1B201E048066C
:10357000010E701EC6B2002EF1DC501CC2B2A24277
:10358000E9DBA94201D0012070BD0020FCE72DE954
:10359000F84F82464FF0000B2AF0030A504604F021
:1035A000AFF9009003F0FCFF80468A4A8A4B03F093
:1035B00003FE0646894A8A4B03F0FEFB044603F0ED
:1035C000C9FB8346584604F047F9044604F080F9E5
:1035D000BDE8F88F2DE9F84F82464FF0000B2AF036
:1035E000030A504604F08CF9009003F0D9FF80469E
:1035F0007C4A7D4B03F0E0FD064600227B4B03F046
:10360000E5FE044603F0A6FB8346584604F024F981
:10361000044604F05DF9BDE8F88F2DE9F84306464D
:103620000C4600270025A846A9468025FFF75EF92D
:103630002846FFF705FA4CF25030FFF793F910B126
:103640000020BDE8F8833046FFF7FAF94CF250301D
:10365000FFF788F908B10020F3E7FFF747F9691C85
:10366000C8B2FFF7EDF905E0FFF740F9691CC8B2F1
:10367000FFF7E6F94CF25030FFF774F90028F3D168
:103680004620FEF7E9FFFFF70BFA8DF80000FFF781
:103690009BF9FFF705FA8DF80100FFF795F9FFF7A1
:1036A000FFF90746FFF7AEF9FFF73EF93A46022168
:1036B0006846FFF747FF9DF801009DF8001000EBFA
:1036C00001201FFA80F8E32E04D14046FFF75FFF88
:1036D000814603E04046FFF77DFF81461CB1484626
:1036E00004F0D6F820804846ABE708B500200090EB
:1036F0003F48007805286BD2DFE800F003152C4224
:1037000054000520FFF7CEF8FFF711FF6420FEF705
:1037100085FF384800683849086035480078401C03
:103720003349087054E00021E320FFF776FF334966
:1037300008603048006830490968401A032808D3F7
:103740002B480078401C2A4908702A4800682A49FA
:1037500008603DE00021E520FFF75FFF2749486052
:103760002448006824490968401A08D02048007895
:10377000401C1F4908701F4800681F49086027E067
:10378000FFF7D5FE1B4800681B490968401A08D09E
:1037900017480078401C16490870164800681649FA
:1037A000086015E06A46E6214020FFF7A4F964208E
:1037B000FEF734FFFFF7BBFE6420FEF72FFFFFF795
:1037C000AFFE6420FEF72AFF00200949087000BF01
:1037D00000BF08BDD7A3703D0AF7653FCDCCCCCC68
:1037E000CC6C47C07644CF7701405F3F0000184063
:1037F00050000020340000204C0000204400002035
:1038000010B586B0044601210420FDF76DFA0121B0
:103810008803FDF769FA18208DF817004FF400703F
:10382000ADF8140003208DF8160005A97848FCF7C0
:103830009FFF04208DF817000002ADF8140003204C
:103840008DF8160005A97248FCF792FF019400203C
:10385000ADF810000C20ADF80E000020ADF80C0003
:10386000ADF80A00ADF8080001A96A48FEF7F5F9BD
:1038700001216848FEF77DFA012240F22551654892
:10388000FEF783FA25208DF8000001208DF8030053
:1038900000208DF8010002208DF802006846FCF738
:1038A0009EFE06B010BD10B586B00446012104206E
:1038B000FDF71AFA01214804FDF723FA18208DF8C4
:1038C00017000420ADF8140003208DF8160005A998
:1038D0004F48FCF74DFF04208DF817000820ADF885
:1038E000140003208DF8160005A94948FCF740FF95
:1038F00001940020ADF810000C20ADF80E0000205F
:10390000ADF80C00ADF80A00ADF8080001A9424876
:10391000FEF7A3F901214048FEF72BFA012240F2FD
:1039200025513D48FEF731FA26208DF80000012090
:103930008DF8030000208DF801008DF80200684624
:10394000FCF74DFE06B010BD2DE9F04107460C46D0
:10395000154600260DE014F8011B3846FEF776FAEE
:1039600000BF40213846FEF7DFFA0028F9D0701C6E
:1039700086B2AE42EFDBBDE8F0810FB430B5CBB01C
:10398000054601AC50A800904FF4947101A8009B2B
:103990004F9A01F017FD002000900BE014F8011B76
:1039A0002846FEF753FA00BF40212846FEF7BCFA2E
:1039B0000028F9D020780028F0D14BB030BC5DF859
:1039C00014FB10B540F225511248FEF7C3FAF0B1CE
:1039D000124801F0C2FE114991F89610884203D2B4
:1039E00000200E4981F896000A48001D0088C1B2E7
:1039F0000A4890F8962090F89600401C074B83F8F0
:103A000096001846815420210248FEF79AFA10BD0C
:103A1000000801400038014000440040100100202F
:103A200030B585B004460D465B48844204D101217F
:103A30004015FDF759F90BE05848844204D10121A3
:103A40000015FDF751F903E00121C803FDF74CF91A
:103A50004FF40040FDF7ACF82046FEF7BFFA002017
:103A60008DF8050003904FF4602002900020009034
:103A700001208DF8100000208DF8040069462046D2
:103A8000FEF7D3FA4448844203D115B10120FEF772
:103A900089FC01212046FEF7F4FA2046FEF713FBCD
:103AA00000BF2046FEF714FB0028FAD12046FEF79F
:103AB00019FB00BF2046FEF71AFB0028FAD105B01B
:103AC00030BD70B504460D46072301222946204625
:103AD000FEF743FB01212046FEF713FB00BF022146
:103AE0002046FEF77FFC0028F9D02046FEF79CFB1D
:103AF00070BD2DE9F04782460F461446002500268A
:103B00000DE039462448FFF7DCFF814603F0F8FE5C
:103B10008046294603F070FD0546701CC6B2A642D9
:103B2000EFDB204603F0ECFE80464146284603F0DA
:103B3000D1FDBDE8F0872DE9F84F0A221021164883
:103B4000FFF7D7FF0090009803F02AFD80464FF062
:103B50006632134B03F030FB06460022114B03F094
:103B6000D3F9044603F0F6F80090009803F018FD2E
:103B700006460D4A0D4B03F01DFC80460C4A0D4BCA
:103B800003F0C2F9044600220B4B03F015F98246FC
:103B900003F0E0F8BDE8F88F002401400028014060
:103BA00066660A400000B040E17A14AE47E1F63F95
:103BB00022FDF675E09C713F0000394010B50446C7
:103BC000012C01D0012000E00020024620211C48E9
:103BD000FCF77FFE0CB1012000E0002019490871BC
:103BE00010BD08B501211420FDF77EF810208DF8D6
:103BF00003002020ADF8000003208DF80200694684
:103C00000F48FCF7B5FD00208DF803000820ADF843
:103C1000000069460C48FCF7ABFD00210B48FFF79C
:103C2000FFFE0120FFF7CAFF08BD10B5044622467B
:103C30000D210648FFF75DFF0249086010BD000036
:103C40000008014054000020001001400024014001
:103C500070B5054600248848FCF733FE044624F47A
:103C6000787405F01F0044EA401421468248FCF7AE
:103C700035FE8248FCF725FE044624F0070444EA9A
:103C8000551421467D48FCF729FE0A20FEF7C6FCA4
:103C900070BD10B5044640217848FCF718FE4FF47B
:103CA00000617748FCF713FE2046FFF7D1FF102193
:103CB0007148FCF70AFE1420FEF7B0FC10216E4894
:103CC000FCF705FE0520FEF7A9FC10BD10B5044663
:103CD0000A20FEF7C1FC40216848FCF7F8FD4FF4CC
:103CE00000616748FCF7F3FD2046FFF7B1FF1021A4
:103CF0006148FCF7EAFD1420FEF790FC10215E48B5
:103D0000FCF7E5FD0520FEF789FC10BD10B5044663
:103D100040215A48FCF7D9FD4FF400615848FCF7A0
:103D2000D6FD2046FFF794FF10215348FCF7CDFD48
:103D30001420FEF773FC10214F48FCF7C8FD052046
:103D4000FEF76CFC10BD08B501211C20FCF7CCFF70
:103D500001210846FCF7C8FF01214A48FCF7D9FDBC
:103D600010208DF803004FF47C70ADF800000320A4
:103D70008DF8020069464048FCF7FAFC4720ADF890
:103D8000000069463D48FCF7F3FC4FF40060ADF8D5
:103D9000000069463A48FCF7EBFC0F20FEF75CFC9C
:103DA0003820FFF776FF0520FEF756FC3820FFF796
:103DB00070FF0520FEF750FC3820FFF76AFF38201F
:103DC000FFF784FF0820FFF781FF0120FFF77EFF48
:103DD0000620FFF77BFF0C20FFF778FF1021264815
:103DE000FCF775FD08BD0FB4F0B58BB00446002696
:103DF000002702AD12A8019002A8019A119901F0C2
:103E0000CFFA00200190C4F18F00C7B22046FFF71F
:103E10005DFF11E015F8010BFFF778FF701CC0B2D1
:103E20000646B84208DD8F2C06DC0026C020FFF7CE
:103E30004DFF0120FEF710FC28780028EAD10BB0D6
:103E4000F0BC5DF814FB10B50446802C04D0C02CE7
:103E500007D0FF2C0ED109E00BA18020FFF7C3FF94
:103E600008E009A1C020FFF7BEFF03E00120FFF733
:103E70002DFF00BF00BF10BD000C0140001001402D
:103E800000080140000230002020202020202020B7
:103E900020202020202020200000000010B54FF41A
:103EA000A060FCF797FBFEF7A1FBFFF732F8FEF7E7
:103EB00013FFFEF781FBFFF794FEFEF7F6FCFFF71A
:103EC00042FF4FF4E130FFF79BFCFEA18020FFF79B
:103ED0008AFFFFF779FA8020FFF7B5FFFD480078E9
:103EE000C0F3400008B1FEF7A1FAFA480078C0F329
:103EF000C00018B1FFF7BFF8FFF731F97D20FCF7DC
:103F0000C8FD012813D1F4A1F848FFF736FDFCF7EE
:103F100029FF0120F6490870F6490870F6484088E4
:103F200020F4806000F58060F349488005E0F248A5
:103F3000408820F48060F0494880FF20FFF783FF2D
:103F400048F69F423121ED48FEF723FC48F69F4298
:103F500040F2CF71EA48FEF71CFCEAA1E348FFF704
:103F60000CFD10BD88B0002007908146FFF796FF3A
:103F7000EA4A00210846FFF758F9E94A10210020D3
:103F8000FFF753F9E7A220210120FFF779F9E64A6C
:103F900000210220FFF749F9E44A10210220FFF72F
:103FA00044F9E34A20210220FFF73FF9DDA2302146
:103FB0000320FFF765F9DF4A00210620FFF735F9F6
:103FC000DD4A10210620FFF730F9D6A22021072074
:103FD000FFF756F900F0F0FE00F0E6FF002001F0D8
:103FE000E1F81CE2D548007E00F0010000287DD0F9
:103FF000FEF7A8FE30B103283AD0062814D00928CD
:1040000048D123E0CE48007818B90120FEF76EFFB2
:1040100002E00020FEF76AFFC848007E20F00200A0
:10402000801CC649087636E0C548407818B901209A
:10403000FEF748FF02E00020FEF744FFBF48007E85
:1040400020F00200801CBD49087624E0BC4880783E
:1040500018B90120FEF722FF02E00020FEF71EFF44
:10406000B648007E20F00200801CB449087612E0B9
:10407000B348C07818B90120FEF7FCFE02E000202A
:10408000FEF7F8FEAD48007E20F00200801CAB4930
:10409000087600E000BF00BFAA4801680798081A28
:1040A000B0F57A7F1FD3A74800680790B9F1000FD9
:1040B0000AD000219148FDF7AFFA00F07CFC012105
:1040C0008E48FDF7A9FA0CE000218C48FDF7A4FA10
:1040D0009D480178032000F031FC01218748FDF75D
:1040E0009BFA89F001099548007E00E0A4E000F009
:1040F000010058B101F04CF9012807D1002000F06F
:10410000BAFF044614B1204600F03EFD7148007825
:10411000C0F34000002835D0FEF7DBF98B49C868B2
:1041200003F03EFA05460E468849886803F038FADF
:1041300082468B468549486803F032FA07463A467C
:104140000B4683A18020CDE900ABCDE90256FFF7F5
:104150004AFE7E49C86803F023FA05460E467B49AD
:10416000886803F01DFA074688467849486803F0D6
:1041700017FA77A28DE88301CDE9045628210120A2
:10418000FFF77EF85348007800F0010028B3FFF7EE
:10419000ACFA7549486803F003FA05460E467249C1
:1041A000086803F0FDF907463A460B466FA1C020A8
:1041B000CDE90056FFF717FE6B49486803F0F0F9A8
:1041C00005460E466849086803F0EAF967A28DE8DB
:1041D000630038210320FFF753F86848007901286D
:1041E0000FD10520FFF721FD64490868644903F0F9
:1041F0009BFB03D20120FEF779FE02E00020FEF7D0
:1042000075FE3B48007828B15EA13848FFF7B5FB42
:1042100000F030F94948007EC0F3400000280AD081
:1042200049480178032000F089FB4449097E60F386
:10423000410142480176F2E04048007E00F0010072
:10424000F0BB24480078C0F30010C8B3534A3021B3
:104250000620FEF7EAFF524A40210620FEF7E5FF5E
:10426000504A50210620FEF7E0FF002000F09AFFA0
:1042700032491031314800F035FE08BB4AA11B48D5
:10428000FFF77BFB2D48007E20F00100401C2B49EE
:104290000876012000F086FFC820FEF7DDF9474AC6
:1042A00030210620FEF7C1FF3C4A40210620FEF7E0
:1042B000BCFF3B4A50210620FEF7B7FF21487FE0B4
:1042C00080E00000436865636B20506F7765722063
:1042D0004F6E0000400000205741524E3A094957A6
:1042E0004447205265626F6F740D0A000038014028
:1042F000E1000020E2000020FC000020001000404F
:1043000000140040332E4861726477617265206941
:104310006E6974204F4B0D0A000000008E83000868
:10432000AE8300083A0000002E8300086E83000868
:104330004E830008CE830008EE830008E3000020CF
:104340003B00002034000020E0000020000100209D
:104350005825302E31662C5925302E31662C5A25A1
:10436000302E3166000000004400002025302E3140
:1043700066432C25302E3166252500005400002090
:1043800000C05A455741524E3A094661756C742037
:1043900050726F636573730D0A0000002E8400086D
:1043A0004E8400086E840008546970733A094E65A3
:1043B00074576F726B204F4B0D0A00008E840008FB
:1043C0000068079016480078C0F3001010BB00206A
:1043D00000F0E8FE134800883C280ADB12A11948C7
:1043E000FFF7CBFA00F0E0FD00200E4908801649E7
:1043F000087000F028FD70B914A11248FFF7BDFA4B
:104400000748008820F0100010300549088001207E
:1044100000F0C8FE03E012A10A48FFF7AEFAE1E59A
:104420004000002030000020546970733A0909549C
:10443000696D657220436865636B204572720D0A71
:104440000000000000380140E10000204E455420EB
:10445000446576696365203A4F6B0D0A00000000E1
:104460004E455420446576696365203A4572726F03
:10447000720D0A0010B5002000F094FE2D4800785F
:1044800030B1012809D002280FD003284CD128E0F0
:1044900029A12E48FFF771FA47E02DA12B48FFF71D
:1044A0006CFA0020234908703FE02FA12748FFF74E
:1044B00064FA00201F490870304A40210620FEF7A8
:1044C000B4FE2F4A50210620FEF7AFFE2D48007E95
:1044D00020F001002B49087610312A4800F079FDC0
:1044E00023E029A11948FFF748FA00201149087074
:1044F000224A40210620FEF798FE214A502106203C
:10450000FEF793FE2648008820F01000244908801A
:1045100000F04AFD002000F03EFE1A48007E20F028
:1045200001001849087600E000BF00BF012000F03C
:1045300039FE10BDE10000205741524E3A09464174
:10454000554C545F4E4F4E450D0A00000038014057
:104550005741524E3A094641554C545F5245424FDD
:104560004F540D0A000000005741524E3A0946418F
:10457000554C545F4544500D0A000000AE840008BD
:10458000CE840008E30000205741524E3A094641CC
:10459000554C545F4E4F4445564943450D0A000063
:1045A000400000202DE9FC4104460E46154630210E
:1045B000304601F0FDF805EB450004EB8000007A81
:1045C0000C2812D2DFE800F006121E2A37434F5B98
:1045D0006773839105EB450004EB80004068037826
:1045E000FBA23021304600F01DFF90E005EB4500B6
:1045F00004EB800040680378F5A23021304600F0DB
:1046000011FF84E005EB450004EB8000406803786F
:10461000EFA23021304600F005FF78E005EB4500C1
:1046200004EB80004068B0F90030E9A23021304648
:1046300000F0F8FE6BE005EB450004EB80004068FD
:104640000388E3A23021304600F0ECFE5FE005EB8A
:10465000450004EB80004068DDA23021036830464D
:1046600000F0E0FE53E005EB450004EB80004068FD
:10467000D7A230210368304600F0D4FE47E005EBB6
:10468000450004EB80004068D2A230210368304628
:1046900000F0C8FE3BE005EB450004EB80004068FD
:1046A000CCA230210368304600F0BCFE2FE005EBC1
:1046B000450104EB81014968086802F071FFC6A258
:1046C000CDE900013021304600F0ACFE1FE005EBE3
:1046D000450004EB8000406803C8BFA2CDE900019B
:1046E0003021304600F09EFE11E005EB450004EB62
:1046F000800040681030009005EB450004EB80001E
:10470000B6A230214368304600F08CFE00BF00BFE7
:10471000BDE8FC812DE9F043A5B080460F46164662
:1047200000243D46B8F1010F09D0B8F1030F48D07D
:10473000B8F1040F79D0B8F1050F41D1C6E0ACA1B2
:10474000B448FFF71AF91022B3A1384601F079F8FE
:1047500026E004EB4400B54901EB8000407AE8B163
:1047600060210DA801F046F8224601A9AF48FFF7E5
:1047700019FF01A8009004EB4400AC4951F8203027
:10478000ABA260210DA800F04DFE0DA800F0E5FFE2
:1047900081464A460DA9384600F097FF601CC4B216
:1047A000B442D6DB00E06D1C28780028FBD1002144
:1047B000681E054601700222A8A1384600F085FF58
:1047C000B8E0A7A19348FFF7D8F80122ADA1384679
:1047D00001F037F826E004EB4400944901EB800037
:1047E000407AE8B160210DA801F004F8224601A941
:1047F0008E48FFF7D7FE01A8009004EB44008B49D8
:1048000051F82030A0A260210DA800F00BFE0DA8E9
:1048100000F0A3FF81464A460DA9384600F055FF37
:10482000601CC4B2B442D6DB01E00DE06D1C2878F8
:104830000028FBD10021681E05460170012295A1C8
:10484000384600F042FF75E093A17248FFF795F8F3
:1048500001228CA1384600F0F4FF26E004EB44006E
:10486000724901EB8000407AE8B160210DA800F0A8
:10487000C1FF224601A96D48FFF794FE01A80090F0
:1048800004EB4400694951F820308CA260210DA846
:1048900000F0C8FD0DA800F060FF81464A460DA952
:1048A000384600F012FF601CC4B2B442D6DB00E010
:1048B0006D1C28780028FBD10021681E0546017078
:1048C000012274A1384600F000FF33E084A1514872
:1048D000FFF753F802228BA1384600F0B2FF26E022
:1048E00004EB4400514901EB8000407AA0B1602103
:1048F0000DA800F07FFF224601A94C48FFF752FEA9
:1049000001A8009004EB4400484951F820307EA2F1
:1049100060210DA800F086FD0DA800F01EFF814665
:104920004A460DA9384600F0D0FE601CC4B2B4421D
:10493000D6DB00BF00BF25B0BDE8F08370B5ADF594
:10494000687D05460C467248007E00F0010018B1F3
:1049500000F01EFD012803D001200DF5687D70BD1B
:10496000002000F01FFC4FF4007168A800F042FF27
:104970004FF4D071684600F03DFF22466946284654
:10498000FFF7C8FE684600F0E8FE06463246694674
:1049900068A800F09AFE68A800F0DFFE86B23146F3
:1049A00068A800F04EFB00205A490870012000F072
:1049B000F9FB0020D1E710B500245548007E00F037
:1049C000010018B100F0E4FC012800D010BDA3E004
:1049D00025640000256C6400256600007B226C6F56
:1049E0006E223A25732C226C6174223A25737D0065
:1049F000546970733A094F6E654E65745F53656E06
:104A000064446174612D485454505F545950453189
:104A10000D0A0000003801407B22646174617374E8
:104A20007265616D73223A5B000000005C0000203B
:104A30007B226964223A222573222C2264617461EC
:104A4000706F696E7473223A5B7B2276616C756558
:104A5000223A25737D5D7D2C000000005D7D000005
:104A6000546970733A094F6E654E65745F53656E95
:104A700064446174612D485454505F545950453317
:104A80000D0A00007B000000222573223A25732CBA
:104A9000000000007D000000546970733A094F6EF9
:104AA000654E65745F53656E64446174612D48544E
:104AB00054505F54595045340D0A0000222573228A
:104AC0003A7B22323031362D30382D31305431326C
:104AD0003A33313A3137223A25737D2C00000000F9
:104AE000546970733A094F6E654E65745F53656E15
:104AF00064446174612D485454505F545950453595
:104B00000D0A00002C3B000025732C25733B000090
:104B1000E3000020E2000020002000F043FB00F052
:104B2000F0FA0446012C01D0022C0FD102203449A6
:104B30000870344908703448007E8008401C3249AF
:104B4000097E60F384013048017616E0032C0FD112
:104B500003202B4908702B4908702B48007E8008E1
:104B6000401C2949097E60F384012748017604E04E
:104B70000020234908702349087000F060F90120E3
:104B800000F010FB00BF10BD10B504461FA1204669
:104B900000F0ADFD98B11FA12248FEF7EEFE022005
:104BA00017490870174908701748007E8008401C94
:104BB0001549097E60F38401134801761DE01AA1AE
:104BC000204600F094FD50B119A11648FEF7D5FE1D
:104BD0000D48007E20F01C000B4908760DE019A15D
:104BE0001048FEF7CAFE0848007E8008401C0649AF
:104BF000097E60F384010448017600F020F910BDBD
:104C0000E1000020E2000020E3000020434C4F536D
:104C10004544000054435020434C4F534544310D0C
:104C20000A00000000380140737563630000000053
:104C3000546970733A090953656E64204F4B0D0A2D
:104C400000000000546970733A090953656E6420CE
:104C50004572720D0A00000010B50020534908800B
:104C60004FF480715148001D00F0A2FD10BD00B549
:104C700087B001210420FCF737F801214804FCF734
:104C800040F818208DF81B000420ADF81800032010
:104C90008DF81A0006A94648FBF76AFD04208DF836
:104CA0001B000820ADF8180003208DF81A0006A993
:104CB0003F48FBF75DFD4FF4E13002900020ADF876
:104CC00014000C20ADF812000020ADF81000ADF873
:104CD0000E00ADF80C0002A93648FCF7BEFF01211A
:104CE0003448FDF746F8012240F225513148FDF7DE
:104CF0004CF826208DF8040001208DF807000020D4
:104D00008DF805008DF8060001A8FBF768FCFFF799
:104D1000A3FF07B000BD70B504460D4600260DE0A8
:104D200014F8011B2348FDF791F800BF40212148EA
:104D3000FDF7FAF80028F9D0701C86B2AE42EFDB1E
:104D400070BD1A48008808B90120704717480088CC
:104D500016494988884203D1002014490880F4E7A5
:104D600012480088114948800120EEE710B540F252
:104D700025511048FDF7EEF8B0B10C480088FF2827
:104D800002D90020094908800A48001D0088C1B2E4
:104D9000064802880088401C044B1880181D815466
:104DA00020210448FDF7CDF810BD0000A801002027
:104DB000000801400044004008B501210420FBF731
:104DC00093FF10208DF803000120ADF800000320B0
:104DD0008DF802006946F748FBF7CAFCFFF747FF6A
:104DE000F548408820F48060F349488008BD2DE9EB
:104DF000F04105460E461446C827284600F0ADFC93
:104E00001FFA80F841462846FFF785FF10E0FFF7BC
:104E100098FF50B93146E94800F069FC28B10CB15F
:104E2000FFF71AFF0020BDE8F0810A20FDF714FC0F
:104E3000381EA7F10101CFB2E9D10120F3E710B587
:104E4000FFF70AFF10BD70B5322601250024FFF7D9
:104E5000F6FF3FE06420FDF7FFFB4FF40061D84808
:104E6000FDF755FF10B1601CC4B200E00024FFF74D
:104E700068FF08B1142C2DDBD2A1D04800F037FC1C
:104E800010B10CB9002524E0D1A1CC4800F02FFCD2
:104E900008B9142C1CDB0024D1A1D748FEF76DFD06
:104EA0000DE00120FDF7E6FF4FF4FA70FDF7D4FBAB
:104EB0000020FDF7DFFF4FF4FA70FDF7CDFB012274
:104EC000CEA1D0A0FFF793FF0028EAD1002506E08D
:104ED000012504E0301EA6F10101CEB2BAD100BF17
:104EE000284670BDF0B589B004460E46002501275E
:104EF000B1488078C0F3830000284BD1202101A85D
:104F000000F078FCC6A101A800F003FC214601A82E
:104F100000F042FCC7A101A800F03EFC314601A808
:104F200000F03AFCC4A101A800F036FC01AAC3A11C
:104F3000B148FEF722FD18E00120FDF79BFF4FF47A
:104F4000FA70FDF789FB0020FDF794FF4FF4FA702B
:104F5000FDF782FB681CC0B205460A2805DBBBA131
:104F6000A548FEF70AFD012706E001229AA101A843
:104F7000FFF73DFF0028DFD100BF0A2D09D08E4882
:104F800080788008401C8C49498860F385018A48F4
:104F9000418005E00027B5A19748FEF7EEFC00BF71
:104FA00000BF384609B0F0BD10B5B7A19248FEF772
:104FB000E4FC01217F48FBF78AFCFA20FDF74CFB5B
:104FC00001217C48FBF781FC4FF47A70FDF744FB2C
:104FD00010BD70B588B004460D4600260122B0A170
:104FE000B0A0FFF704FFB3A18348FEF7C6FC4FF45F
:104FF000FA70FDF731FB2021684600F0FBFB88A129
:10500000684600F086FB2146684600F0C5FB89A192
:10501000684600F0C1FB2946684600F0BDFB86A14A
:10502000684600F0B9FB6A4684A17348FEF7A5FC08
:10503000012269A16846FFF7DAFE0646304608B04D
:1050400070BD30B589B005460C463220FDF704FB33
:10505000FFF702FE22469CA101A800F0CDF9012233
:105060009DA101A8FFF7C3FE18B921462846FFF706
:1050700052FE09B030BD2DE9FC410746002500264F
:1050800000BFFFF75EFE002831D194A14B4800F02D
:105090002EFB0446002C2AD092A1204600F027FBCC
:1050A0000446641C06E014F8012B3046711CCEB295
:1050B0000DF8002020783A28F5D1684600F0F8FA7B
:1050C000C5B2641C002605E014F8011B3B4881555D
:1050D000701CC6B2AE42F7DBC5F58071374A501975
:1050E00000F066FB344805803448BDE8FC810A20A6
:1050F000FDF7B2FA381EA7F101018FB2C1D100BF8E
:10510000F3E770B50025C824FFF7A6FD0E2176A0B1
:10511000FFF701FE32E0FFF714FE00282BD176A145
:10512000264800F0E4FA28B1022576A13248FEF7BD
:1051300024FC1FE078A1214800F0D9FA28B100250D
:1051400078A12D48FEF719FC14E07CA11B4800F063
:10515000CEFA28B101257CA12748FEF70EFC09E014
:105160007FA1164800F0C3FA20B103257FA1224891
:10517000FEF703FC06E00A20FDF76EFA601EC0B2DF
:10518000041EC8D100BF24B903257CA11A48FEF72C
:10519000F4FB284670BD0849498860F38501064A3A
:1051A000518070470449498860F38911024A51804F
:1051B0007047000000080140FC000020AC01002006
:1051C000001001405749464920474F54204950009C
:1051D0005749464920444953434F4E4E4543540096
:1051E00053544120546970733A094C696E6B2057CF
:1051F0006966690D0A00000000380140474F5420DD
:105200004950000041542B43574A41503D226E62A1
:10521000222C22313233343536373839220D0A0008
:1052200041542B43495053544152543D225443500E
:10523000222C2200222C00000D0A00005354412091
:10524000546970733A0925730000000050542069B6
:105250006E666F204572726F722C557365204150D7
:1052600050202D3E20383236360D0A0054697073B6
:105270003A0945535038323636205354415F4D6F0A
:105280006465204F4B0D0A00546970733A09455309
:1052900050383236365F52657365740D0A0000006F
:1052A0004F4B000041542B434950434C4F53450D45
:1052B0000A000000546970733A09434950434C4F47
:1052C00053450D0A0000000041542B4349505345FB
:1052D0004E443D25640D0A003E0000004950442C18
:1052E000000000002C00000041542B43495053544F
:1052F000415455530D0A00005354415455533A320A
:10530000000000004553503832363620476F742075
:1053100049500D0A000000005354415455533A338C
:10532000000000004553503832363620436F6E6E11
:10533000656374204F4B0D0A000000005354415424
:1053400055533A3400000000455350383236362069
:105350004C6F737420436F6E6E6563740D0A0000AA
:105360005354415455533A350000000045535038CA
:10537000323636204C6F73740D0A00004553503896
:105380003236362054696D654F75740D0A00000081
:1053900002484088C0F3831070470000FC000020E2
:1053A0001CB50C46064B7B4469460090204600F035
:1053B00034FD04460020694600F042FD20461CBD35
:1053C000970A00007CB51D4616460C00009001D0DF
:1053D0002044401E074B7B442A46694601903046D4
:1053E00000F01BFD05461CB10020694600F028FDB9
:1053F00028467CBD710A00000FB41CB5084B06AAF4
:105400007B4469460090059800F007FD04460020A3
:10541000694600F015FD20461CBC5DF814FB000039
:105420003D0A00000FB47CB50C0009AA009001D021
:105430002044401E084B7B4469460190089800F0C8
:10544000ECFC05461CB10020694600F0F9FC28463A
:105450007CBC5DF814FB0000110A000070B50C461E
:105460000546012A05D02878800600D5EA69002380
:1054700002E0012305E05B1C934202D2E05C0028BD
:10548000F9D1A869E618C01AA861286A18442862E8
:10549000284600F009FA04E0D5E9012114F8010BCF
:1054A0009047B442F8D3284600F014FA70BD0000CB
:1054B0002DE9F0410646002410687529314616A5ED
:1054C00010D000F018FA002802DA404213A507E0D5
:1054D00031688A0701D512A502E0490704D511A554
:1054E000012401E000F010FA00210A2206F124074D
:1054F00009E0B0FBF2FCB0FBF2F302FB1C00303021
:1055000078541846491C0028F3D123462A463046D1
:10551000BDE8F04100F001BA000000002D000000DD
:105520002B000000200000002DE9F05F89460446B2
:105530004FF0000ADFF874B1FB44C0F820A0204609
:10554000E1688847002874D0252806D0D4E90121D5
:105550009047206A401C2062F1E700265F46204603
:10556000E16888472028054607DB312D05D27819E8
:1055700010F8200C08B10643F1E7B00701D526F07A
:105580000406C4F81CA00027C4F818A02A2D09D0CE
:10559000284601F0ABFB38B304EB8708303DC8F870
:1055A000185019E059F8041B204604EB870291615A
:1055B000E1688847012F054618D1E069002820DA04
:1055C00026F020061DE0D8F8180000EB800005EB5F
:1055D00040003038C8F818002046E1688847054682
:1055E00001F084FB0028EED1012F0AD02E2D08D126
:1055F0002046E16888477F1C0546022F46F02006BA
:10560000C4DBA069002803DA404246F00106A0612D
:10561000F00701D026F010066C2D0BD0682D09D0B4
:105620004C2D39D06A2D35D0742D35D07A2D33D00C
:1056300016E038E0E1682F4620468847B842054624
:1056400009D16C2F26D04FF48060E16806432046D4
:105650008847054604E06C2F1AD04FF4807006434B
:105660000DB3A5F14100192802D8203546F4006693
:105670004A462946204626604E46FAF793FD80B1F9
:1056800001280BD0F61D26F0070000F1080956E7A7
:105690004020E4E78020D8E70020D6E706F104099F
:1056A0004DE7284652E7206ABDE8F09FB22F000080
:1056B00070B5064600F0F4F80468054630460A2244
:1056C000002100F0FFFC2C6070BD10B5431E13F8E4
:1056D000014F002CFBD105E011F8014B002C03F821
:1056E000014B03D0521EF7D20021197010BD30B506
:1056F00005460B462A4613F8014B12F8010B08B178
:10570000A042F8D01CB1002802D06D1CF1E7284659
:1057100030BD40EA0103024630B59B0710D14FF07F
:10572000013400E008C208C91D1B9D4315EAC41FCF
:10573000F8D013F0FF0102F8011B0DD01B0AF8E7A7
:1057400011F8013B002B02F8013B05D011F8013B99
:10575000002B02F8013BF3D130BD10B5431C02E031
:1057600010F8011B71B18107FAD14FF0013202C864
:105770008C1A8C4314EAC211F9D0C01A0A0603D05D
:10578000C01E10BDC01A10BD0A0401D0801E10BD7D
:105790000902FCD0401E10BD421E12F8013F002B32
:1057A000FBD111F8013B002B02F8013BF9D1704706
:1057B0004FF000020429C0F0128010F0030C00F03A
:1057C0001B80CCF1040CBCF1020F18BF00F8012BB8
:1057D000A8BF20F8022BA1EB0C0100F00DB85FEA86
:1057E000C17C24BF00F8012B00F8012B48BF00F852
:1057F000012B70474FF0000200B5134694469646C1
:10580000203922BFA0E80C50A0E80C50B1F12001D3
:10581000BFF4F7AF090728BFA0E80C5048BF0CC081
:105820005DF804EB890028BF40F8042B08BF7047DF
:1058300048BF20F8022B11F0804F18BF00F8012B51
:10584000704710B5044610F0030F08BF11F0030FA6
:1058500040F015804FF0013E121FC0F20E8051F84B
:10586000043BA3EB0E0C2CEA030C1CEACE1C08BF75
:1058700040F8043BF0D0A1F1040102F10402521EF1
:1058800008DB11F8013B002B00F8013BF7D1114672
:10589000FFF78EFF204610BD70477047704700002D
:1058A00000487047AC02002070B504468569006866
:1058B000C10601D5302600E02026C00707D070BD04
:1058C000D4E9012130469047206A401C20626D1EB9
:1058D000F6D570BD70B5044685690078C00707D15C
:1058E00070BDD4E9012120209047206A401C20622D
:1058F0006D1EF6D570BD09684A0501D540B27047E6
:10590000C905FCD500B2704709684A0501D5C0B287
:105910007047C905FCD580B270472DE9F0470D46A8
:1059200099469246044600F124080168880604D589
:10593000E06921F01001216000E00120A84201DDB2
:10594000471B00E00027A1697A1902EB0900081A39
:10595000A0612078C00602D42046FFF7A5FF0026EC
:1059600008E0D4E901211AF806009047206A401C9B
:10597000761C20624E45F4DB2078C0060AD520460E
:10598000FFF792FF06E0D4E9012130209047206A1A
:10599000401C2062381EA7F10107F4DC07E0D4E9BF
:1059A000012118F805009047206A401C2062281E3B
:1059B000A5F10105F3DC2046FFF78CFF20780006F7
:1059C00002D50220BDE8F0870120FBE711680268DC
:1059D000006A530501D508700AE0D30501D5088097
:1059E00006E0130603D5C217C1E9000200E0086013
:1059F0000120704770472DE9FF4F0C461E464FF0BF
:105A0000FF378BB0D2E90001DDF860800A908A464A
:105A1000C1F30A5505B93D46002108464FF0000084
:105A2000BAF1000F00F4400005DA00EB80004FF4FB
:105A3000400101EA50004FEA9059B9F1010F00DD31
:105A4000B9460A9850EA4A000ED044F61050A5F222
:105A5000FF3545432F14B8F1000F1ED07542291EA3
:105A60001EDDC9F100021CE0B8F1010F4FF000008B
:105A700001D0302103E0F24305E02154401CB04244
:105A8000FBDB30460022002121540B99C1F808802D
:105A9000C1E900200FB0BDE8F08FBD1B6D1CDEE733
:105AA0004A4600DA694206A800F040FC06AB93E8DB
:105AB000070003AB83E8070050460A9900F047FD52
:105AC0008DE80700A0F500501F3800900398002DC6
:105AD00009DD42F21F014A46084403A903906846C3
